:020000040800F2
:100000005807002079020008F5180008ED180008CC
:10001000F118000871040008451B000800000000EA
:10002000000000000000000000000000FD180008B3
:100030007504000800000000F91800080119000804
:10004000930200089302000893020008930200083C
:10005000930200089302000893020008930200082C
:10006000930200089302000893020008930200081C
:10007000930200089302000893020008930200080C
:1000800093020008930200089302000893020008FC
:1000900093020008930200089302000893020008EC
:1000A00093020008930200089302000893020008DC
:1000B00093020008930200089302000893020008CC
:1000C00093020008930200089302000893020008BC
:1000D00093020008930200089302000893020008AC
:1000E000930200089302000893020008930200089C
:1000F000930200089302000893020008930200088C
:10010000930200089302000893020008930200087B
:10011000930200089302000893020008930200086B
:10012000930200089302000893020008930200085B
:10013000930200089302000893020008930200084B
:10014000930200089302000893020008930200083B
:10015000930200089302000893020008930200082B
:10016000930200089302000893020008930200081B
:10017000930200089302000893020008930200080B
:1001800093020008930200089302000893020008FB
:1001900093020008930200089302000893020008EB
:1001A00093020008930200089302000800F002F88E
:1001B00000F052F814A696E8000CB244B344DA45B5
:1001C00001D100F049F8BAE80F000FA696E8300018
:1001D000A5EB040504EB0607AAEB0704A7F101074A
:1001E0004FEA15154FEA3414A4F10104AC4201D3CF
:1001F00000F032F813F0010F18BFFB1A43F00103AF
:1002000000F001F8DBE718477C1B00009C1B000096
:10021000103A24BF78C878C1FAD8520724BF30C832
:1002200030C144BF04680C60704700007047000094
:100230000023002400250026103A28BF78C1FBD8EF
:10024000520728BF30C148BF0B6070471FB501F08F
:1002500080FD1FBD10B510BD00F0D0F81146FFF7AE
:10026000F5FF01F071FC00F0EEF803B4FFF7F2FFC8
:1002700003BC00F0F5F80000094880470948004732
:10028000FEE7FEE7FEE7FEE7FEE7FEE7FEE7FEE746
:10029000FEE7FEE704480549054A064B70470000A3
:1002A00005190008AD01000858010020580700207A
:1002B000580300205803002053EA020C00F0698024
:1002C0002DE9F04B4FF00006002B1FBFB3FA83F56A
:1002D00003FA05F424FA05F65E4012BF1643B2FA9B
:1002E00082F502FA05F4C5F120051EBF22FA05FCCD
:1002F00044EA0C04203556EA044C4FEA144418BF73
:10030000641C4FF000084FF00009904271EB030CA1
:1003100039D3002919BFB1FA81F701FA07F6B0FA0B
:1003200080F700FA07F6C7F120071EBF20FA07FC86
:1003300046EA0C062037B6FBF4FCA7EB0507103F96
:1003400007F01F0BCBF120062CFA06F60CFA0BFB7C
:1003500044BFB3460026202FA4BF5E464FF0000BDB
:100360005BEA060C08BF4FF0010B19EB0B0948EBD9
:100370000608ABFB027C06FB02CC0BFB03CCC01BCC
:1003800071EB0C01C1E70B46024641464846BDE809
:10039000F08B13B5084318BF4FF0FF300146AFF3A1
:1003A0000080BDE81C4070474FF0000200B51346C6
:1003B00094469646203922BFA0E80C50A0E80C5085
:1003C000B1F12001BFF4F7AF090728BFA0E80C5036
:1003D00048BF0CC05DF804EB890028BF40F8042B2F
:1003E00008BF704748BF20F8022B11F0804F18BF9C
:1003F00000F8012B7047704770477047754600F052
:100400002BF8AE4605006946534620F007008546A6
:1004100018B020B5FFF73EFFBDE820404FF00006C2
:100420004FF000074FF000084FF0000BAC46ACE86F
:10043000C009ACE8C009ACE8C009ACE8C00921F0CB
:1004400007018D46704710B50446AFF30080204683
:10045000BDE81040FFF709BF0048704710000020BA
:1004600001491820ABBEFEE72600020070470000DD
:10047000FEE700007047000070B581B000220092D6
:1004800090F83C20012A03D1022001B070BD00BFCA
:10049000D1F800E00122BEF10A0F1FFA8EFC80F8AD
:1004A0003C2009D34FEA4C02036812FA8EF2A2F103
:1004B0001E0403F10C0204E003680EEB4E0403F18A
:1004C000100207251668A54026EA050515608D6807
:1004D000166805FA04F4344314604968062907D8FD
:1004E00001EB81014A1F194651F8345F0FE000BF4C
:1004F0000C2901EB810105D8A1F12302194651F81D
:10050000305F04E0A1F14102194651F82C5F1F242D
:10051000944025EA04040C600CFA02F20C6842F2E2
:10052000043CC4F2010C2243ACF54174A3420A60BE
:1005300006D0002180F83C10002001B070BD00BF43
:100540001221BEF1110FC1F2000118BF8E453BD13F
:10055000DCF800208E4522F48002CCF80020DCF884
:10056000002042F40002CCF80020E2D140F2080161
:10057000C2F2000109684DF68362C4F21B32A1FB8E
:100580000212910C01EB81014900009100990029B0
:10059000CFD000BF00990139009100990029C8D03F
:1005A00000990139009100990029C2D000990139C0
:1005B000009100990029BCD000990139009100995F
:1005C0000029E7D1B5E700BFBEF1120FB1D1DCF8C9
:1005D000001021F40001CCF80010DCF8001041F408
:1005E0008001CCF80010A4E70068C06C70470000E0
:1005F000002804BF0120704710B5016C00293DD0D0
:10060000016CC90645D4016C41F2021291430231DA
:1006100042F204320164C4F20102116821F4403153
:100620001160136890E812102343D0F810E01360B3
:100630004A68012422F480724A604A68C0F6007455
:1006400042EA0E224A604A6822F040724A604A68D2
:1006500042EA0C024A608A6822F400628A60C26838
:100660008B681A438A60826A8B68A24223F07063A7
:100670008B608B6810D123F0405216E0044600F0E6
:1006800065F820460021616484F83C10016CC906BD
:10069000B9D5012153E000BF1A438A608A6822F06D
:1006A00040528A60C26A8B681A438A608A6822F064
:1006B00002028A608A68037E90F8204042EA430280
:1006C0008A604A6884B142F400624A604A684EF225
:1006D000000322F460424A60426ACFF6FF734C681E
:1006E00003EB4232224301E022F400624A60CA6A0C
:1006F00040F2000C22F47002CA62C3694269CFF66C
:10070000F07CCC6A0CEB03532343CB628B6823F45D
:1007100000738B6090F830308C6844EA43238B6020
:100720008B6823F480638B608B6843EA82228A6043
:1007300000214164026C012363F301020264002280
:1007400080F83C20BDE810400846704780B586B070
:1007500042F200210068C4F20101002288420592A1
:10076000CDE903220292019202D006B080BD00BF03
:1007700043F630000092C4F20200436943F4806300
:100780004361436903F480630093009B0092036814
:1007900043F020030360006800F020000090009800
:1007A0004FF4807001900320CDE9020201F5724000
:1007B00001A900F05FF906B080BD000070B50446E5
:1007C00000680D468268520544BF80685FEAC050E9
:1007D00038D400F01FFA21680A68920749D4064607
:1007E000681C3CD0DDB90868800721D508688007FF
:1007F0003FD4086880071BD50868800739D408688B
:10080000800715D50868800733D4086880070FD59E
:1008100008688007E7D52CE00868800729D400F035
:10082000F9F9801B2168A842F6D908688007F3D43B
:10083000206C40F004002064002084F83C00032079
:1008400070BD00BF206C40F020002064002084F8C0
:100850003C00012070BD00BF0868800709D408680B
:10086000800706D4086880075CBF08685FEA80706C
:10087000F2D56FF012000860206C40F40070206424
:10088000886810F0405F01D0002070BD207E0028F5
:10089000FAD1C86A10F4700F02D088684005F3D40A
:1008A000206C20F480702064206CC004ECD4206C98
:1008B00040F001002064002070BD000010B581B040
:1008C0000021009190F83C10012903D1022001B0D1
:1008D00010BD00BF0468012180F83C10214651F88A
:1008E000083FDB0729D10B684DF6836243F0010313
:1008F0000B6040F20803C2F200031B68C4F21B3213
:10090000A3FB02239A0C02EB42020092009AA2B1CE
:10091000009A013A0092009A7AB1009A013A009244
:10092000009A52B1009A013A0092009A2AB1009AB4
:10093000013A0092009A002AEAD10A68036CD207B1
:100940000CD143F01001016400F1440101200A6858
:1009500010430860002001B010BD00BF40F20172DA
:1009600023EA020202F5807202646268520504D52D
:10097000026C012363F30D320264026C4FF0000E2F
:100980000023D20444BF426C22F0060342F2043C2E
:10099000436480F83CE06FF02200C4F2010C206058
:1009A000DCF80000C0060DD0ACF5417084422BD1BC
:1009B0004FF60450CFF6FF705CF8000010F0405F77
:1009C00022D125E042F20000C4F20100844217D097
:1009D00042F20020C4F2010084420DD042F2001025
:1009E000C4F2010084420FD1DCF80000C00607D039
:1009F000ACF58270844207D1DCF80000C00603D455
:100A0000086810F0405F03D0002001B010BD00BFA7
:100A10004FF080409BE7000090F83C10012904BF94
:100A20000220704701688A6822F001028A608968A2
:100A3000C90705D1016C41F20112914301310164F2
:100A4000002180F83C10002070470000B0B504463B
:100A500000F0E0F8054640F20000C2F20000007825
:100A6000611C18BF044400BF00F0D4F8401BA04232
:100A7000FAD3B0BD2DE9F04F83B000F1200200F1B0
:100A80003E4742F20045009207F1FF77C4F20205AB
:100A90000A224FEAB726A84208BF092200254FF0D4
:100AA00000084FF00009092E38BF4FEAB722019223
:100AB0000AE000BF09F1010908F10208B9F1100FBD
:100AC00005F1040500F0A2800F68012202FA09FE78
:100AD00017EA0E0AEED0D1F804C003220CF0030787
:100AE0007E1E02FA08F4012E6FEA040B12D8846805
:100AF000CE6804EA0B0406FA08F6344384604468BE
:100B000024EA0E06CCF3001404FA09F426434660E6
:100B100004E000BF032F01D103271EE0C6688C68E4
:100B200006EA0B0604FA08F42643022FC66014D125
:100B30006FF00302009E02EA590756F807C005F05D
:100B40001C040F220B69A2402CEA0202A3401A43A4
:100B5000F251D1F804C00CF00307026807FA08F359
:100B600002EA0B021A431CF4403F0260A2D00022AA
:100B700043F644030292C4F202031A6843F60044A7
:100B800042F480421A601A68C4F2010402F48042FE
:100B90000292029A29F003024FF6084C2244CFF643
:100BA000FF7C52F80C3005F00C070F26BE40B34313
:100BB000019E06FA07F73B4342F80C30A2684B68E7
:100BC00042EA0A0743F60C4CDE0258BF22EA0A0743
:100BD000A760C4F2010CDCF800209E0242EA0A077A
:100BE00058BF22EA0A07CCF8007062689E0342EA06
:100BF0000A0758BF22EA0A0767602268DB0342EA55
:100C00000A0758BF22EA0A07276053E703B0BDE886
:100C1000F08F000040F25010C2F2000000687047F0
:100C200040F2000040F25011C2F20000C2F2000196
:100C300000780A68104408607047000080B543F6E9
:100C40000040C4F20200016841F4007101600168D3
:100C500041F480610160016841F48071016003200A
:100C600000F074F80F2000F005F800F027F80020DD
:100C700080BD000070B540F20006C2F2000640F2EE
:100C800008013278C2F200014FF47A730968B3FBAD
:100C9000F2F20446B1FBF2F1084600F04DFB0F2CD6
:100CA0004FF0010508D838B94FF0FF302146002237
:100CB000002500F01FF87460284670BD82B0002047
:100CC00043F640010190C4F202014A6842F48042B6
:100CD0004A604A6802F480420192019A00900868D2
:100CE00040F080500860086800F080500090009844
:100CF00002B0704710B54EF60C5CCEF2000CDCF87A
:100D00000030C3F3022E8EF00704042C28BF042405
:100D1000BEF103034FF0FF3E0EFA04F438BF002388
:100D2000A14399400EFA03F39A43114300F00F02D6
:100D300000F160430901043A03F56443624400286A
:100D400048BF02F10C03197010BD00004EF60C51A3
:100D5000CEF200010A684FF6FF031A4060F30A2240
:100D600042F0806040F0FD7008607047002804BFCA
:100D7000012070472DE9F04143F60808C4F202084B
:100D80000446D8F8F8030D4600F00F00884207D259
:100D900088F8F853D8F8F80300F00F00A84277D18C
:100DA0002068810717D5410705D5D8F8001041F410
:100DB000E051C8F80010010705D5D8F8001041F43B
:100DC0006041C8F80010D8F80010A26821F0F001C6
:100DD0001143C8F80010C00740D1D8F8F80300F05C
:100DE0000F00A84207D988F8F853D8F8F80300F0A4
:100DF0000F00A8424CD12068410707D5D8F8001051
:100E0000E26821F4E0511143C8F80010000708D54A
:100E1000D8F80000216920F4604040EAC100C8F819
:100E2000000000F07DF8D8F8001041F66C52C1F3D4
:100E30000311C0F60002515C40F2080220FA01F1F1
:100E400040F20400C2F200000068C2F20002116029
:100E5000FFF710FF0020BDE8F08100BF6068811E31
:100E6000022907D258F8081C89015CBF0120BDE89F
:100E7000F08111E0012807D158F8081C89035CBFF4
:100E80000120BDE8F08107E058F8081C890703D469
:100E90000120BDE8F08100BFD8F8001021F0030167
:100EA0000843C8F80000FFF7B5FE064641F2883750
:100EB000D8F80000616800F00C00B0EB810F8CD016
:100EC000FFF7A8FE801BB842F2D90320BDE8F081ED
:100ED00040F2080043F60801C2F20000C4F2020129
:100EE0000068096841F67C52C1F38221C0F6000215
:100EF000515CC8407047000040F2080043F608010A
:100F0000C2F20000C4F202010068096841F67C5296
:100F1000C1F34231C0F60002515CC8407047000086
:100F200010B543F60404C4F20204606800F00C003B
:100F300008280BD0042819BF42F20040C0F2F40088
:100F400047F64000C0F27D1010BD00BF2068216848
:100F50002368490247F64001C0F27D1100F03F02CC
:100F6000C3F388105CBF42F20041C0F2F401A1FB60
:100F700000010023FFF7A0F921680222C1F301411B
:100F800002EB4101B0FBF1F010BD0000002804BFEE
:100F9000012070472DE9F04182B00446007843F605
:100FA0000006C007C4F202060CD0B06800F00C00C6
:100FB000042840F081803068800303D560680028F1
:100FC00000F06881207880071BD5B06810F00C0F06
:100FD00009D0B06800F00C00082840F087807068E5
:100FE000400200F183803068800703D5E068012863
:100FF00040F050813068216920F0F80040EAC100DB
:1010000030602078000713D4207840072AD4A569DF
:10101000002D00F03A81B06800F00C00082840F084
:10102000A580012D40F00E81012002B0BDE8F081C5
:101030006069002800F082800020C4F2472001216E
:10104000C0F8801EFFF7E6FD054600BF706F800701
:10105000DAD4FFF7DFFD401B0228F7D9032002B0E6
:10106000BDE8F081306C5FEAC0080AD4002001902E
:10107000306C40F080503064306C00F08050019053
:10108000019847F20007C4F200073868C00547D44A
:10109000386840F480703860FFF7BCFD054600BF3B
:1010A0003868C0053CD4FFF7B5FD401B0228F7D9CE
:1010B000032002B0BDE8F081B06800F00C00082801
:1010C00003D1706840023FF576AF61683068B1F5D2
:1010D000803F07D0B1F5A02F40F09A8040F48020E7
:1010E0003060306840F4803030609AE0E06800287A
:1010F00040F20000C4F247205CD001210160FFF7FC
:1011000089FD0546306880073FF574AFFFF782FD23
:10111000401B0228F6D9032002B0BDE8F08100BFD1
:10112000A168306F012905D0052955D140F0040090
:101130003067306F40F00100306756E00020C4F2A5
:1011400047200021C0F8801EFFF764FD054600BF60
:10115000706F80077FF558AFFFF75CFD401B0228DA
:10116000F6D9032002B0BDE8F08100BF0027C4F229
:10117000472700203866FFF74DFD022D05460DD1AB
:101180003068800140F18A80FFF744FD401B02284F
:101190004FF00300F4D902B0BDE8F081306880015F
:1011A00073D5FFF737FD401B02284FF00300F5D938
:1011B000F1E700BF00210160FFF72CFD054600BFED
:1011C000306880077FF51DAFFFF724FD401B022824
:1011D0004FF00300F4D9DEE720F001003067306FF4
:1011E000002920F0040030677AD0FFF713FD054690
:1011F00041F28837306F800700F18480FFF70AFDE5
:10120000401BB842F6D9032002B0BDE8F08100BF10
:1012100020F4803030603068002920F48020306075
:101220007AD0FFF7F7FC0546306880033FF5CAAE79
:10123000FFF7F0FC401B6428F6D9032002B0BDE89C
:10124000F08100BF7068E16900F480028A4221D118
:10125000216A00F03F028A421CD147F6C071626ADF
:101260000140B1EB821F15D1A16A4FF6FF73C9038C
:10127000994300F44032A1F580318A420AD1E16AF3
:1012800000F07060B0EB016F04D1002002B0BDE847
:10129000F08100BF012002B0BDE8F08104F11C051F
:1012A0002FCD084340EA8210D9034FF6FF729143D5
:1012B000A1F5803140EA056008437060012038667E
:1012C000FFF7A8FC044600BF30688001DDD4FFF7BB
:1012D000A1FC001B02284FF00300F5D95BE700BF1B
:1012E000FFF798FC054641F2883700BF306F800752
:1012F00008D5FFF78FFC401BB8424FF00300F5D92B
:1013000049E700BFB8F1000F3FF581AE306C20F027
:10131000805030647BE600BFFFF77CFC054600BFD1
:10132000306880037FF54EAEFFF774FC401B6428E5
:101330004FF00300F4D92EE7411E0020B0EB116FEF
:101340001CBF012070474EF21002CEF20002516025
:101350004EF62351CEF20001F0230B70072190606E
:101360001160704790F83C20012A4FF0020254D0DF
:1013700010B580F83D200268D2F804E0D2F808C029
:101380000C682EF07003234341F2FF74C4F2000492
:10139000A24253600EDC40F2FF73C4F200039A4293
:1013A00016DCB2F1804F2BD040F20043C4F20003B0
:1013B00024E000BF40F2FF33C4F201039A4213DC81
:1013C00041F60003C4F200039A4219D0002313E04F
:1013D00040F60003C4F200039A4211D040F60043E5
:1013E000C4F200030AE000BF44F20003C4F20103A8
:1013F0009A4205D040F20043C4F201039A4204D15C
:1014000049682CF08003194391600121002280F883
:101410003D1080F83C20BDE81040104670470000A9
:10142000002804BF0120704710B5044690F83D0025
:1014300028B9002084F83C00204600F01FF8022064
:1014400084F83D002068211D00F066FA012084F830
:10145000460084F83E0084F83F0084F8400084F899
:10146000410084F8420084F8430084F8440084F882
:10147000450084F83D00002010BD00000068B0F178
:10148000804F18BF704781B00020009043F64000A5
:10149000C4F20200016841F001010160006800F03F
:1014A00001000090009801B07047000090F83C20C7
:1014B000012A4FF002026CD080B580F83D20D0F8B0
:1014C00000C04FF67772DCF8083023EA0202CCF84D
:1014D00008200B684F2B29DC1F2B45DD202B46D025
:1014E000302B44D0402B40F0AF80D1F804E0C968E5
:1014F000DCF82030DCF8202022F00102CCF820209B
:10150000DCF8182022F0F00242EA011123F00A026E
:1015100042EA0E02CCF81810CCF82020DCF80810B3
:1015200041F0470121F0300128E000BF6F2B33DD8F
:10153000B3F5005F74D0B3F5805F21D0702B40F01D
:101540008380D1E901E3C968DCF8082043EA0E038F
:1015500022F47F4243EA01211143CCF80810DCF861
:10156000081041F0770109E00BB1102B6CD1DCF8C9
:10157000081021F07001194341F00701CCF8081060
:101580000022012180F83D10002180F83C10BDE8C8
:1015900080401046704700BF502B21D0602B53D1A4
:1015A000D1F804E0C968DCF82030DCF8202022F013
:1015B0001002CCF82020DCF8182022F4704242EA15
:1015C000013123F0A00242EA0E12CCF81810CCF838
:1015D0002020DCF8081041F0670121F01001CDE770
:1015E000D1F804E0C968DCF82030DCF8202022F0D3
:1015F0000102CCF82020DCF8182022F0F00242EAA8
:10160000011123F00A0242EA0E02CCF81810CCF8BD
:101610002020DCF8081041F0570121F02001ADE74F
:10162000D1E901E3C968DCF8082043EA0E0322F49B
:101630007F4243EA01211143CCF80810DCF808107E
:1016400041F480419AE700BF01229AE7002804BFD5
:101650000120704710B5044690F8410028B90020D9
:1016600084F84000204600F021F8242084F841004E
:101670002068C16821F40051C160204600F0EEF9F5
:101680002068016921F490410161416921F02A013A
:101690004161C16841F40051C160002020216064B3
:1016A00084F8411084F84210606310BD2DE9F043C6
:1016B00087B044F200450068C4F200050026A84245
:1016C0000696CDE904660396029603D007B0BDE8FE
:1016D000F08300BF43F630000196C4F202000169B6
:1016E00002AC41F40031016101694FF0020801F4DC
:1016F000003101910199019601684FF0030941F011
:10170000010101600168072701F0010101910199C0
:101710000196016841F0080101600068214600F06F
:101720000800019001980820029005F5DE30CDE90F
:101730000386CDF814900697FFF79CF92020CDE999
:10174000020805F5E4302146CDE904690697FFF764
:1017500091F907B0BDE8F0832DE9F04381B004466C
:1017600090F84100202809D100294FF0010018BF4E
:10177000002A07D101B0BDE8F08300BF022001B00C
:10178000BDE8F0830020606421201D460E4684F8E9
:1017900041001746FFF73EFAA784E784A168814617
:1017A000B1F5805F02D1206900285DD03746002066
:1017B000E28C2168002A5DD06A1C24D0002D4AD01A
:1017C000804600BF0868000608D4FFF723FAA0EBA4
:1017D0000900A8427AD82168C868F3E717B117F85A
:1017E000010B04E038F8020B00276FF35F2048601C
:1017F000E08C0138E084E08C0028E3D13AE000BFBF
:101800000A68120609D40A68120606D40A68120683
:101810005CBF0A685FEA0262F2D51FB117F8012BBC
:1018200005E000BF30F8022B00276FF35F224A600B
:10183000E28C013AE284E28C002AE4D11AE000BF93
:1018400030F8022B00276FF35F224A60E28C013AE6
:10185000E284E28C72B10A68120635D5002FEFD00F
:1018600017F8012BF1E700BF00273046E28C216812
:10187000002AA1D1086840061ED42DB3681C14D1DB
:10188000086840062AD40868400627D4086840063D
:1018900024D4086840064FF00000F1D50DE000BFE9
:1018A0002068C1680068400618D4FFF7B3F9A0EBC0
:1018B0000900A842F4D909E00020202184F8411051
:1018C00001B0BDE8F08300BFFFF7A4F90320202199
:1018D00084F8411001B0BDE8F08300BF0020202152
:1018E00084F8411001B0BDE8F0830000FEE700007D
:1018F000FEE70000FEE700007047000070470000B0
:10190000FFF78EB94EF68850CEF20000016841F420
:10191000700101607047000010B540F6FF3E03689B
:10192000C4F2000E40F2004C7045C4F2010C25DCFC
:10193000B0F1804F2FD040F20042C4F2000290423A
:1019400029D040F60002C4F20002904223D041F6B2
:10195000FF72C4F20002904227DC70453ADCB0F11D
:10196000804F5BD040F20042C4F20002904255D05A
:1019700040F60002C4F200024EE000BF40F6004212
:10198000C4F20002904206D0604504D00022C4F2A6
:1019900001029042DBD14A6823F07003134341F601
:1019A000FF72C4F200029042D7DD43F6FF72C4F228
:1019B0000102904220DC42F20002C4F20002904296
:1019C0002CD00022C4F20102904227D0604525D0DD
:1019D00028E000BF40F60042C4F2000290421DD051
:1019E00041F60002C4F20002904217D041F60042D4
:1019F000C4F2000210E000BF44F20002C4F201028F
:101A000090420BD044F60002C4F20102904205D08D
:101A100044F20042C4F20102904203D1CA6823F4A6
:101A20004073134323F080024B69D1F800E08C68C7
:101A30001A430260C46240F48062C0F828E0624544
:101A400004BF09690163012141610169C90708BF38
:101A500010BD016921F00101016110BDB0B504465E
:101A6000006804F108030ECB0569194325F44055BD
:101A70002A4302616269E3691143C268194349F26A
:101A80000C639A431143C1604169A26921F440711A
:101A900041F20043114340F48062C4F201039A42D0
:101AA000416103D1FFF728FA02E000BFFFF710FA07
:101AB000E1694FF69C7563681922C0F6FF75B1F5B0
:101AC000004FA0FB02011FD15A00DB0FFEF7F4FB11
:101AD00048F21F51C5F2EB11A0FB01235A0905F191
:101AE000805302FB0300322303EBC000A0FB010183
:101AF0004FF4F87000EA111000EB0210C1F342112C
:101B0000084421688860B0BD9A009B0FFEF7D4FBA3
:101B100048F21F51C5F2EB11A0FB01235A0902FB49
:101B20000500322303EB0010A0FB0101F02000EAC6
:101B3000511000EB0210C1F3431108442168886082
:101B4000B0BD0000FEE7000094B043F6300647F257
:101B50000005C4F20206C4F20005FFF76FF808ACF6
:101B600020463021FEF720FC00270697CDE90477B8
:101B7000CDE9027701973069012140F08050306152
:101B8000306900F08050019001980197286861F356
:101B90008F302860286800F44040019001980220AE
:101BA000089010200C9020460B910E97FFF7EEF94D
:101BB00010B172B6FEE700BF0F20CDE9020702A800
:101BC0000021CDE904770697FFF7D0F810B172B67F
:101BD000FEE700BF00270897306840F2700440F02D
:101BE000200030603068C2F2000400F0200008904D
:101BF00008980897306805F5324140F001003060E0
:101C00003068012500F001000890089808973068B6
:101C100040F008003060306800F008000890089834
:101C2000204640F8081F0121C0F600710B97077687
:101C300080F82070C0E90A17C56180F83070C0E9EB
:101C40000177C0E903774561FEF7D2FC10B172B6A7
:101C5000FEE700BF062008A9A1C104F1080508A9F4
:101C60002846FEF709FC18B172B600BFFEE700BFB8
:101C700040F2C0000021C2F200004FF0804240F26A
:101C8000E73345F208270B91CDE90911CDE902119F
:101C9000C0E90023C0E9021701618161FFF7C0FBC1
:101CA00010B172B6FEE700BF4FF48050089040F2CA
:101CB000C000C2F2000008A9FFF7F8FB10B172B62D
:101CC000FEE700BF40F2C000C2F2000002A9FFF729
:101CD00049FB18B172B600BFFEE700BF40F2081022
:101CE00044F20041C2F20000C4F2000100230C27BC
:101CF0004FF4E13280E80E00C0E90333C0E9057318
:101D0000C361FFF7A3FC18B172B600BFFEE700BFC6
:101D100040F20816C2F200062846FEF7CFFD28461C
:101D20004FF0FF31FEF74AFD2846FEF75DFC60608C
:101D30002846FEF771FE6068214620803046022268
:101D40004FF0FF33FFF708FD4FF4FA60FEF77EFE19
:101D5000E2E7F1EE100A4FF6FF71C0F2C03120EA5F
:101D6000010040F04070E1EE100A704700000000F2
:101D7000000000000102030406070809000000003B
:101D800001020304A81D000800000020100000004C
:101D900010020008B81D00081000002048070000CD
:101DA00030020008000000000100000010000000E8
:081DB0000024F4000000000013
:04000005080001AD41
:00000001FF
